{
  "_format": "hh-sol-artifact-1",
  "contractName": "MewAuctionApp",
  "sourceName": "contracts/MewAuctionApp.sol",
  "abi": [
    {
      "inputs": [
        {
          "internalType": "address",
          "name": "_admin",
          "type": "address"
        },
        {
          "internalType": "uint256",
          "name": "_minimalBid",
          "type": "uint256"
        }
      ],
      "stateMutability": "nonpayable",
      "type": "constructor"
    },
    {
      "inputs": [
        {
          "internalType": "uint256",
          "name": "currentMax",
          "type": "uint256"
        }
      ],
      "name": "MewBidAmountLessEqThanMaxBid",
      "type": "error"
    },
    {
      "inputs": [],
      "name": "MewNoBalanceToWithdraw",
      "type": "error"
    },
    {
      "inputs": [],
      "name": "MewPermissionNotAllowed",
      "type": "error"
    },
    {
      "anonymous": false,
      "inputs": [
        {
          "indexed": false,
          "internalType": "address",
          "name": "winner",
          "type": "address"
        }
      ],
      "name": "MewAuctionEnd",
      "type": "event"
    },
    {
      "anonymous": false,
      "inputs": [
        {
          "indexed": false,
          "internalType": "address",
          "name": "user",
          "type": "address"
        },
        {
          "indexed": false,
          "internalType": "uint256",
          "name": "amount",
          "type": "uint256"
        }
      ],
      "name": "MewAuctionNewBid",
      "type": "event"
    },
    {
      "inputs": [],
      "name": "endAuction",
      "outputs": [],
      "stateMutability": "nonpayable",
      "type": "function"
    },
    {
      "inputs": [],
      "name": "getMaxBidAmount",
      "outputs": [
        {
          "internalType": "uint256",
          "name": "",
          "type": "uint256"
        }
      ],
      "stateMutability": "view",
      "type": "function"
    },
    {
      "inputs": [],
      "name": "getWinner",
      "outputs": [
        {
          "internalType": "address",
          "name": "",
          "type": "address"
        }
      ],
      "stateMutability": "view",
      "type": "function"
    },
    {
      "inputs": [],
      "name": "newBid",
      "outputs": [],
      "stateMutability": "payable",
      "type": "function"
    },
    {
      "inputs": [],
      "name": "withdraw",
      "outputs": [],
      "stateMutability": "nonpayable",
      "type": "function"
    }
  ],
  "bytecode": "0x60806040526000600360006101000a81548173ffffffffffffffffffffffffffffffffffffffff021916908373ffffffffffffffffffffffffffffffffffffffff16021790555034801561005257600080fd5b5060405161083a38038061083a8339818101604052810190610074919061015b565b816000806101000a81548173ffffffffffffffffffffffffffffffffffffffff021916908373ffffffffffffffffffffffffffffffffffffffff16021790555080600281905550505061019b565b600080fd5b600073ffffffffffffffffffffffffffffffffffffffff82169050919050565b60006100f2826100c7565b9050919050565b610102816100e7565b811461010d57600080fd5b50565b60008151905061011f816100f9565b92915050565b6000819050919050565b61013881610125565b811461014357600080fd5b50565b6000815190506101558161012f565b92915050565b60008060408385031215610172576101716100c2565b5b600061018085828601610110565b925050602061019185828601610146565b9150509250929050565b610690806101aa6000396000f3fe60806040526004361061004a5760003560e01c80633ccfd60b1461004f578063652b5ec1146100665780638e7ea5b214610091578063d7097b49146100bc578063fe67a54b146100c6575b600080fd5b34801561005b57600080fd5b506100646100dd565b005b34801561007257600080fd5b5061007b610229565b6040516100889190610557565b60405180910390f35b34801561009d57600080fd5b506100a6610233565b6040516100b391906105b3565b60405180910390f35b6100c461025d565b005b3480156100d257600080fd5b506100db61041d565b005b6000600460003373ffffffffffffffffffffffffffffffffffffffff1673ffffffffffffffffffffffffffffffffffffffff1681526020019081526020016000205403610156576040517f4d952de500000000000000000000000000000000000000000000000000000000815260040160405180910390fd5b6000600460003373ffffffffffffffffffffffffffffffffffffffff1673ffffffffffffffffffffffffffffffffffffffff1681526020019081526020016000205490506000600460003373ffffffffffffffffffffffffffffffffffffffff1673ffffffffffffffffffffffffffffffffffffffff168152602001908152602001600020819055503373ffffffffffffffffffffffffffffffffffffffff166108fc829081150290604051600060405180830381858888f19350505050158015610225573d6000803e3d6000fd5b5050565b6000600254905090565b6000600160009054906101000a900473ffffffffffffffffffffffffffffffffffffffff16905090565b60025434116102a5576002546040517f8973e7b400000000000000000000000000000000000000000000000000000000815260040161029c9190610557565b60405180910390fd5b600073ffffffffffffffffffffffffffffffffffffffff16600360009054906101000a900473ffffffffffffffffffffffffffffffffffffffff1673ffffffffffffffffffffffffffffffffffffffff16146103765760025460046000600360009054906101000a900473ffffffffffffffffffffffffffffffffffffffff1673ffffffffffffffffffffffffffffffffffffffff1673ffffffffffffffffffffffffffffffffffffffff168152602001908152602001600020600082825461036e91906105fd565b925050819055505b3460028190555033600360006101000a81548173ffffffffffffffffffffffffffffffffffffffff021916908373ffffffffffffffffffffffffffffffffffffffff1602179055507fa95d39f96756fb5e7aefb07c750fca616cd051028cd30dca51bb2f546b244e37600360009054906101000a900473ffffffffffffffffffffffffffffffffffffffff16600254604051610413929190610631565b60405180910390a1565b60008054906101000a900473ffffffffffffffffffffffffffffffffffffffff1673ffffffffffffffffffffffffffffffffffffffff163373ffffffffffffffffffffffffffffffffffffffff16146104a2576040517fa42787e000000000000000000000000000000000000000000000000000000000815260040160405180910390fd5b33600160006101000a81548173ffffffffffffffffffffffffffffffffffffffff021916908373ffffffffffffffffffffffffffffffffffffffff1602179055507f79bcec44292024a6dc254f2c9af6e9214371cd45be80e9f4c8cf58b92f085bc8600160009054906101000a900473ffffffffffffffffffffffffffffffffffffffff1660405161053491906105b3565b60405180910390a1565b6000819050919050565b6105518161053e565b82525050565b600060208201905061056c6000830184610548565b92915050565b600073ffffffffffffffffffffffffffffffffffffffff82169050919050565b600061059d82610572565b9050919050565b6105ad81610592565b82525050565b60006020820190506105c860008301846105a4565b92915050565b7f4e487b7100000000000000000000000000000000000000000000000000000000600052601160045260246000fd5b60006106088261053e565b91506106138361053e565b925082820190508082111561062b5761062a6105ce565b5b92915050565b600060408201905061064660008301856105a4565b6106536020830184610548565b939250505056fea26469706673582212202e4556702df551463af8ffa6b2d9aa957ee6e882e241dd9298bb67d028bba13e64736f6c634300081b0033",
  "linkReferences": {},
  "deployedLinkReferences": {}
}